{
  "contractName": "DeconetAdHocPaymentsSplitting",
  "abi": [
    {
      "inputs": [
        {
          "name": "_kyberNetworkProxyAddress",
          "type": "address"
        }
      ],
      "payable": false,
      "stateMutability": "nonpayable",
      "type": "constructor",
      "signature": "constructor"
    },
    {
      "payable": true,
      "stateMutability": "payable",
      "type": "fallback"
    },
    {
      "anonymous": false,
      "inputs": [
        {
          "indexed": false,
          "name": "amount",
          "type": "uint256"
        },
        {
          "indexed": false,
          "name": "destination",
          "type": "address"
        },
        {
          "indexed": false,
          "name": "token",
          "type": "address"
        },
        {
          "indexed": false,
          "name": "tokenAmount",
          "type": "uint256"
        }
      ],
      "name": "FundsOut",
      "type": "event",
      "signature": "0xd15a0525e02f2679044679aa69e5b5856e8a0fac98ef14008ab1e4f97c38efc9"
    },
    {
      "anonymous": false,
      "inputs": [
        {
          "indexed": false,
          "name": "amount",
          "type": "uint256"
        },
        {
          "indexed": false,
          "name": "memo",
          "type": "string"
        }
      ],
      "name": "FundsIn",
      "type": "event",
      "signature": "0xc23cd698ada3b4515ef437da8d5cc28a6e6f60819114f57a928a75d7b408c5de"
    },
    {
      "constant": false,
      "inputs": [
        {
          "name": "_destinations",
          "type": "address[]"
        },
        {
          "name": "_amounts",
          "type": "uint256[]"
        },
        {
          "name": "_outCurrencies",
          "type": "address[]"
        },
        {
          "name": "_memo",
          "type": "string"
        }
      ],
      "name": "sendFunds",
      "outputs": [],
      "payable": true,
      "stateMutability": "payable",
      "type": "function",
      "signature": "0x6773a824"
    }
  ],
  "bytecode": "0x608060405234801561001057600080fd5b50604051602080610c6883398101806040528101908080519060200190929190505050806000806101000a81548173ffffffffffffffffffffffffffffffffffffffff021916908373ffffffffffffffffffffffffffffffffffffffff16021790555050610be5806100836000396000f300608060405260043610610041576000357c0100000000000000000000000000000000000000000000000000000000900463ffffffff1680636773a82414610046575b600080fd5b610169600480360381019080803590602001908201803590602001908080602002602001604051908101604052809392919081815260200183836020028082843782019150505050505091929192908035906020019082018035906020019080806020026020016040519081016040528093929190818152602001838360200280828437820191505050505050919291929080359060200190820180359060200190808060200260200160405190810160405280939291908181526020018383602002808284378201915050505050509192919290803590602001908201803590602001908080601f016020809104026020016040519081016040528093929190818152602001838380828437820191505050505050919291929050505061016b565b005b600080600080600080600060088b5111158015610189575060008b51115b1515610223576040517f08c379a000000000000000000000000000000000000000000000000000000000815260040180806020018281038252602c8152602001807f54686572652069732061206d6178696d756d206f6620382064657374696e617481526020017f696f6e7320616c6c6f776564000000000000000000000000000000000000000081525060400191505060405180910390fd5b89518b511415156102c2576040517f08c379a00000000000000000000000000000000000000000000000000000000081526004018080602001828103825260378152602001807f4c656e677468206f662064657374696e6174696f6e7320646f6573206e6f742081526020017f6d61746368206c656e677468206f6620616d6f756e747300000000000000000081525060400191505060405180910390fd5b88518b51141515610361576040517f08c379a000000000000000000000000000000000000000000000000000000000815260040180806020018281038252603d8152602001807f4c656e677468206f662064657374696e6174696f6e7320646f6573206e6f742081526020017f6d61746368206c656e677468206f66206f757443757272656e6369657300000081525060400191505060405180910390fd5b3496507fc23cd698ada3b4515ef437da8d5cc28a6e6f60819114f57a928a75d7b408c5de87896040518083815260200180602001828103825283818151815260200191508051906020019080838360005b838110156103cd5780820151818401526020810190506103b2565b50505050905090810190601f1680156103fa5780820380516001836020036101000a031916815260200191505b50935050505060405180910390a160009550600094505b8a518510156105d6578a8581518110151561042857fe5b906020019060200201519350888581518110151561044257fe5b906020019060200201519250898581518110151561045c57fe5b90602001906020020151915081905073eeeeeeeeeeeeeeeeeeeeeeeeeeeeeeeeeeeeeeee73ffffffffffffffffffffffffffffffffffffffff168373ffffffffffffffffffffffffffffffffffffffff1614156104ff578373ffffffffffffffffffffffffffffffffffffffff166108fc839081150290604051600060405180830381858888f193505050501580156104f9573d6000803e3d6000fd5b5061050d565b61050a828486610680565b90505b7fd15a0525e02f2679044679aa69e5b5856e8a0fac98ef14008ab1e4f97c38efc982858584604051808581526020018473ffffffffffffffffffffffffffffffffffffffff1673ffffffffffffffffffffffffffffffffffffffff1681526020018373ffffffffffffffffffffffffffffffffffffffff1673ffffffffffffffffffffffffffffffffffffffff16815260200182815260200194505050505060405180910390a16105c78287610b9d90919063ffffffff16565b95508480600101955050610411565b8686141515610673576040517f08c379a000000000000000000000000000000000000000000000000000000000815260040180806020018281038252603e8152602001807f5468652073756d206f6620616c6c20616d6f756e74732073686f756c6420626581526020017f20657175616c2062616c616e63652062757420697420646f6573206e6f74000081525060400191505060405180910390fd5b5050505050505050505050565b600080606060008060009054906101000a900473ffffffffffffffffffffffffffffffffffffffff1673ffffffffffffffffffffffffffffffffffffffff1663809a9e5573eeeeeeeeeeeeeeeeeeeeeeeeeeeeeeeeeeeeeeee888a6040518463ffffffff167c0100000000000000000000000000000000000000000000000000000000028152600401808473ffffffffffffffffffffffffffffffffffffffff1673ffffffffffffffffffffffffffffffffffffffff1681526020018373ffffffffffffffffffffffffffffffffffffffff1673ffffffffffffffffffffffffffffffffffffffff16815260200182815260200193505050506040805180830381600087803b15801561079257600080fd5b505af11580156107a6573d6000803e3d6000fd5b505050506040513d60408110156107bc57600080fd5b810190808051906020019092919080519060200190929190505050905080935050600083141515156108a2576040517f08c379a000000000000000000000000000000000000000000000000000000000815260040180806020018281038252605b8152602001807f54686520636f6e76657273696f6e20726174652072657475726e65642062792081526020017f4b796265722069732030207768696368206d65616e7320746865204b7962657281526020017f20737761702077696c6c206e6f742062652070726f636573736564000000000081525060600191505060405180910390fd5b6000809054906101000a900473ffffffffffffffffffffffffffffffffffffffff1673ffffffffffffffffffffffffffffffffffffffff166329589f618873eeeeeeeeeeeeeeeeeeeeeeeeeeeeeeeeeeeeeeee8a8a8a7f80000000000000000000000000000000000000000000000000000000000000008a60008b6040518a63ffffffff167c0100000000000000000000000000000000000000000000000000000000028152600401808973ffffffffffffffffffffffffffffffffffffffff1673ffffffffffffffffffffffffffffffffffffffff1681526020018881526020018773ffffffffffffffffffffffffffffffffffffffff1673ffffffffffffffffffffffffffffffffffffffff1681526020018673ffffffffffffffffffffffffffffffffffffffff1673ffffffffffffffffffffffffffffffffffffffff1681526020018581526020018481526020018373ffffffffffffffffffffffffffffffffffffffff1673ffffffffffffffffffffffffffffffffffffffff16815260200180602001828103825283818151815260200191508051906020019080838360005b83811015610a62578082015181840152602081019050610a47565b50505050905090810190601f168015610a8f5780820380516001836020036101000a031916815260200191505b5099505050505050505050506020604051808303818588803b158015610ab457600080fd5b505af1158015610ac8573d6000803e3d6000fd5b50505050506040513d6020811015610adf57600080fd5b81019080805190602001909291905050509050600081111515610b90576040517f08c379a00000000000000000000000000000000000000000000000000000000081526004018080602001828103825260358152602001807f596f75722045544820636f756c64206e6f7420626520636f6e7665727465642081526020017f76696120746865204b79626572204e6574776f726b000000000000000000000081525060400191505060405180910390fd5b8093505050509392505050565b60008183019050828110151515610bb057fe5b809050929150505600a165627a7a723058204e187be84944a6c135b6dc227ceaa1fdc6c0d87ac908f43a65b4e377880d053a0029",
  "source": "pragma solidity 0.4.25;\n\nimport \"../node_modules/openzeppelin-solidity/contracts/math/SafeMath.sol\";\nimport \"./Kyber.sol\";\n\n\n/**\n * @title Payments Splitting contract.\n *\n * @dev Contract for companies or groups of people who wants to accept Ethereum donations or payments and\n * distribution funds by preconfigured rules.\n */\ncontract DeconetAdHocPaymentsSplitting {\n    using SafeMath for uint;\n\n    // Logged when funds go out\n    event FundsOut (\n        uint amount,\n        address destination,\n        ERC20 token,\n        uint tokenAmount\n    );\n\n    // Logged when funds come in\n    event FundsIn (\n        uint amount,\n        string memo\n    );\n\n    // 0x818E6FECD516Ecc3849DAf6845e3EC868087B755 for ropsten\n    KyberNetworkProxyInterface internal kyberNetworkProxy;\n\n\n    // copied from kyber contract\n    ERC20 constant internal ETH_TOKEN_ADDRESS = ERC20(0x00eeeeeeeeeeeeeeeeeeeeeeeeeeeeeeeeeeeeeeee);\n\n    constructor(address _kyberNetworkProxyAddress) {\n        kyberNetworkProxy = KyberNetworkProxyInterface(_kyberNetworkProxyAddress);\n    }\n\n    /**\n     * @dev Disabled fallback payable function\n     */\n    function () public payable {\n        revert(); // disable fallback function\n    }\n\n    /**\n     * @dev Send funds to destinations\n     * @param _destinations Destination addresses of the current payment.\n     * @param _amounts Amounts for destinations ordered respectively with `_destinations`.\n     * @param _outCurrencies Output currencies for every destination and ordered respectively with `_destinations`.\n     * @param _memo A string memo.\n     */\n    function sendFunds(\n        address[] _destinations,\n        uint[] _amounts,\n        ERC20[] _outCurrencies,\n        string _memo\n    )\n        public\n        payable\n    {\n        require(\n            _destinations.length <= 8 && _destinations.length > 0,\n            \"There is a maximum of 8 destinations allowed\"\n        );  // max of 8 destinations\n        // ensure that lengths of arrays match so array out of bounds can't happen\n        require(\n            _destinations.length == _amounts.length,\n            \"Length of destinations does not match length of amounts\"\n        );\n        // ensure that lengths of arrays match so array out of bounds can't happen\n        require(\n            _destinations.length == _outCurrencies.length,\n            \"Length of destinations does not match length of outCurrencies\"\n        );\n\n        uint balance = msg.value;\n        emit FundsIn(balance, _memo);\n\n        // ensure amounts sum correctly to `balance`.\n        uint sum = 0;\n\n        // loop over destinations and send out funds\n        for (uint i = 0; i < _destinations.length; i++) {\n            address destination = _destinations[i];\n            ERC20 outCurrency = _outCurrencies[i];\n\n            uint amount = _amounts[i];\n            uint sent = amount;\n            if (outCurrency == ETH_TOKEN_ADDRESS) {\n                destination.transfer(amount);\n            } else {\n                sent = swapEtherToTokenAndTransfer(amount, outCurrency, destination);\n            }\n\n            emit FundsOut(amount, destination, outCurrency, sent);\n\n            sum = sum.add(amount);\n        }\n        require(sum == balance, \"The sum of all amounts should be equal balance but it does not\");\n    }\n\n    //@dev assumed to be receiving ether wei\n    //@param token destination token contract address\n    //@param destAddress address to send swapped tokens to\n    function swapEtherToTokenAndTransfer (uint256 amount, ERC20 token, address destAddress) internal returns (uint) {\n        uint minRate;\n        (, minRate) = kyberNetworkProxy.getExpectedRate(ETH_TOKEN_ADDRESS, token, amount);\n        require(minRate != 0, \"The conversion rate returned by Kyber is 0 which means the Kyber swap will not be processed\");\n\n        bytes memory hint;\n\n        uint destAmount = kyberNetworkProxy.tradeWithHint.value(amount)(\n            ETH_TOKEN_ADDRESS, // src token\n            amount, // amount to convert\n            token, // token to convert to\n            destAddress, // where to send tokens to\n            2**255, // max destintation amount.  should always be bigger than amount converted\n            minRate, // min conversion rate\n            address(0x0), // fee sharing wallet id.  should be 0x0\n            hint // hint bytes.  should be empty\n        );\n        require(destAmount > 0, \"Your ETH could not be converted via the Kyber Network\");\n\n        return destAmount;\n    }\n}\n",
  "sourcePath": "/Users/pavel/Developer/Deco/deconet_payments_splitting/contracts/DeconetAdHocPaymentsSplitting.sol",
  "compiler": {
    "name": "solc",
    "version": "0.4.25+commit.59dbf8f1.Emscripten.clang"
  },
  "schemaVersion": "3.0.0",
  "updatedAt": "2019-01-08T01:51:52.438Z",
  "devdoc": {
    "methods": {
      "sendFunds(address[],uint256[],address[],string)": {
        "details": "Send funds to destinations",
        "params": {
          "_amounts": "Amounts for destinations ordered respectively with `_destinations`.",
          "_destinations": "Destination addresses of the current payment.",
          "_memo": "A string memo.",
          "_outCurrencies": "Output currencies for every destination and ordered respectively with `_destinations`."
        }
      }
    },
    "title": "Payments Splitting contract."
  },
  "userdoc": {
    "methods": {}
  }
}