{
  "contractName": "DeconetPaymentsSplittingFactory",
  "abi": [
    {
      "constant": true,
      "inputs": [],
      "name": "libraryAddress",
      "outputs": [
        {
          "name": "",
          "type": "address"
        }
      ],
      "payable": false,
      "stateMutability": "view",
      "type": "function",
      "signature": "0xb816f513"
    },
    {
      "inputs": [
        {
          "name": "_libraryAddress",
          "type": "address"
        }
      ],
      "payable": false,
      "stateMutability": "nonpayable",
      "type": "constructor",
      "signature": "constructor"
    },
    {
      "anonymous": false,
      "inputs": [
        {
          "indexed": false,
          "name": "newCloneAddress",
          "type": "address"
        }
      ],
      "name": "PaymentsSplittingCreated",
      "type": "event",
      "signature": "0x5cbb16c37e699341e78c777ebf08af28de2b4dc91fccf65f6ba0f749fbcdb3f9"
    },
    {
      "anonymous": false,
      "inputs": [
        {
          "indexed": true,
          "name": "target",
          "type": "address"
        },
        {
          "indexed": false,
          "name": "clone",
          "type": "address"
        }
      ],
      "name": "CloneCreated",
      "type": "event",
      "signature": "0x3d2b821286d97aa9d35330d87a82f7b548b9737b10e2d1ba59994edfd50e9d2b"
    },
    {
      "constant": false,
      "inputs": [
        {
          "name": "_destinations",
          "type": "address[]"
        },
        {
          "name": "_sharesMantissa",
          "type": "uint256[]"
        },
        {
          "name": "_sharesExponent",
          "type": "uint256"
        }
      ],
      "name": "createPaymentsSplitting",
      "outputs": [
        {
          "name": "",
          "type": "address"
        }
      ],
      "payable": false,
      "stateMutability": "nonpayable",
      "type": "function",
      "signature": "0xb324816a"
    }
  ],
  "bytecode": "0x608060405234801561001057600080fd5b506040516020806104a583398101806040528101908080519060200190929190505050806000806101000a81548173ffffffffffffffffffffffffffffffffffffffff021916908373ffffffffffffffffffffffffffffffffffffffff16021790555050610422806100836000396000f30060806040526004361061004c576000357c0100000000000000000000000000000000000000000000000000000000900463ffffffff168063b324816a14610051578063b816f513146100ee575b600080fd5b34801561005d57600080fd5b506100ac60048036038101908080359060200190820180359060200191909192939192939080359060200190820180359060200191909192939192939080359060200190929190505050610145565b604051808273ffffffffffffffffffffffffffffffffffffffff1673ffffffffffffffffffffffffffffffffffffffff16815260200191505060405180910390f35b3480156100fa57600080fd5b506101036102b5565b604051808273ffffffffffffffffffffffffffffffffffffffff1673ffffffffffffffffffffffffffffffffffffffff16815260200191505060405180910390f35b6000806101726000809054906101000a900473ffffffffffffffffffffffffffffffffffffffff166102da565b90508073ffffffffffffffffffffffffffffffffffffffff1663e8211eeb88888888886040518663ffffffff167c01000000000000000000000000000000000000000000000000000000000281526004018080602001806020018481526020018381038352888882818152602001925060200280828437820191505083810382528686828181526020019250602002808284378201915050975050505050505050600060405180830381600087803b15801561022d57600080fd5b505af1158015610241573d6000803e3d6000fd5b505050507f5cbb16c37e699341e78c777ebf08af28de2b4dc91fccf65f6ba0f749fbcdb3f981604051808273ffffffffffffffffffffffffffffffffffffffff1673ffffffffffffffffffffffffffffffffffffffff16815260200191505060405180910390a18091505095945050505050565b6000809054906101000a900473ffffffffffffffffffffffffffffffffffffffff1681565b60006060600080606060405190810160405280603781526020017f3d602d80600a3d3981f3363d3d373d3d3d363d73bebebebebebebebebebebebe81526020017fbebebebebebebebe5af43d82803e903d91602b57fd5bf30000000000000000008152509250846c01000000000000000000000000029150600090505b60148110156103df57818160148110151561036e57fe5b1a7f01000000000000000000000000000000000000000000000000000000000000000283826014018151811015156103a257fe5b9060200101907effffffffffffffffffffffffffffffffffffffffffffffffffffffffffffff1916908160001a9053508080600101915050610357565b82516020840181816000f0955050505050509190505600a165627a7a72305820ee01b5edf5da977257ce2939ae666ca9a17c02c49d5b338af8c57d587df043570029",
  "source": "pragma solidity 0.4.25;\n\nimport \"./DeconetPaymentsSplitting.sol\";\nimport \"../node_modules/@optionality.io/clone-factory/contracts/CloneFactory.sol\";\n\n/**\n * @title Clone factory contract for DeconetPaymentsSplitting contract.\n *\n * @dev Contract provide convenient way of deploying clones of DeconetPaymentsSplitting contract.\n */\ncontract DeconetPaymentsSplittingFactory is CloneFactory {\n\n    // PaymentsSplitting master-contract address.\n    address public libraryAddress;\n\n    // Logged when a new PaymentsSplitting clone is deployed to the chain.\n    event PaymentsSplittingCreated(address newCloneAddress);\n\n    /**\n     * @dev Constructor for the contract.\n     * @param _libraryAddress PaymentsSplitting master-contract address.\n     */\n    constructor(address _libraryAddress) public {\n        libraryAddress = _libraryAddress;\n    }\n\n    /**\n     * @dev Create PaymentsSplitting clone.\n     * @param _destinations Destination addresses of the new PaymentsSplitting contract clone.\n     * @param _sharesMantissa Mantissa values for destinations shares ordered respectively with `_destinations`.\n     * @param _sharesExponent Exponent of a power term that forms shares floating-point numbers, expected to\n     * be the same for all values in `_sharesMantissa`.\n     */\n    function createPaymentsSplitting(\n        address[] _destinations,\n        uint[] _sharesMantissa,\n        uint _sharesExponent\n    )\n        external\n        returns(address)\n    {\n        address clone = createClone(libraryAddress);\n        DeconetPaymentsSplitting(clone).setUpDistribution(_destinations, _sharesMantissa, _sharesExponent);\n        emit PaymentsSplittingCreated(clone);\n        return clone;\n    }\n}\n",
  "sourcePath": "/Users/chris/Documents/WorkStuff/Deconet/Blockchain/DeconetPaymentsSplitting/contracts/DeconetPaymentsSplittingFactory.sol",
  "compiler": {
    "name": "solc",
    "version": "0.4.25+commit.59dbf8f1.Emscripten.clang"
  },
  "schemaVersion": "3.0.0-beta.2",
  "updatedAt": "2019-01-10T19:32:55.281Z",
  "devdoc": {
    "methods": {
      "createPaymentsSplitting(address[],uint256[],uint256)": {
        "details": "Create PaymentsSplitting clone.",
        "params": {
          "_destinations": "Destination addresses of the new PaymentsSplitting contract clone.",
          "_sharesExponent": "Exponent of a power term that forms shares floating-point numbers, expected to be the same for all values in `_sharesMantissa`.",
          "_sharesMantissa": "Mantissa values for destinations shares ordered respectively with `_destinations`."
        }
      }
    },
    "title": "Clone factory contract for DeconetPaymentsSplitting contract."
  },
  "userdoc": {
    "methods": {}
  }
}