{
  "contractName": "DeconetPaymentsSplitting",
  "abi": [
    {
      "constant": true,
      "inputs": [
        {
          "name": "",
          "type": "uint256"
        }
      ],
      "name": "distributions",
      "outputs": [
        {
          "name": "destination",
          "type": "address"
        },
        {
          "name": "mantissa",
          "type": "uint256"
        }
      ],
      "payable": false,
      "stateMutability": "view",
      "type": "function",
      "signature": "0x4487d3df"
    },
    {
      "constant": true,
      "inputs": [],
      "name": "sharesExponent",
      "outputs": [
        {
          "name": "",
          "type": "uint256"
        }
      ],
      "payable": false,
      "stateMutability": "view",
      "type": "function",
      "signature": "0xb240ca6f"
    },
    {
      "payable": true,
      "stateMutability": "payable",
      "type": "fallback"
    },
    {
      "anonymous": false,
      "inputs": [
        {
          "indexed": false,
          "name": "destinations",
          "type": "address[]"
        },
        {
          "indexed": false,
          "name": "sharesMantissa",
          "type": "uint256[]"
        },
        {
          "indexed": false,
          "name": "sharesExponent",
          "type": "uint256"
        }
      ],
      "name": "DistributionCreated",
      "type": "event",
      "signature": "0x4607ddff8d42f0eca15ad51c38fc71d7c19e7e7f07923731ee8617c54d5bdf48"
    },
    {
      "anonymous": false,
      "inputs": [
        {
          "indexed": true,
          "name": "senderOrAddressee",
          "type": "address"
        },
        {
          "indexed": false,
          "name": "amount",
          "type": "uint256"
        },
        {
          "indexed": true,
          "name": "operationType",
          "type": "uint8"
        }
      ],
      "name": "FundsOperation",
      "type": "event",
      "signature": "0xc5246a0664eafae13ded673b5437405295f6664552f42784245dc5c221f44284"
    },
    {
      "constant": false,
      "inputs": [
        {
          "name": "_destinations",
          "type": "address[]"
        },
        {
          "name": "_sharesMantissa",
          "type": "uint256[]"
        },
        {
          "name": "_sharesExponent",
          "type": "uint256"
        }
      ],
      "name": "setUpDistribution",
      "outputs": [],
      "payable": false,
      "stateMutability": "nonpayable",
      "type": "function",
      "signature": "0xe8211eeb"
    },
    {
      "constant": false,
      "inputs": [],
      "name": "distributeFunds",
      "outputs": [],
      "payable": false,
      "stateMutability": "nonpayable",
      "type": "function",
      "signature": "0x3a6a4d2e"
    },
    {
      "constant": true,
      "inputs": [],
      "name": "distributionsLength",
      "outputs": [
        {
          "name": "",
          "type": "uint256"
        }
      ],
      "payable": false,
      "stateMutability": "view",
      "type": "function",
      "signature": "0x060ca250"
    }
  ],
  "bytecode": "0x608060405234801561001057600080fd5b50610be8806100206000396000f30060806040526004361061006d576000357c0100000000000000000000000000000000000000000000000000000000900463ffffffff168063060ca250146100d25780633a6a4d2e146100fd5780634487d3df14610114578063b240ca6f14610188578063e8211eeb146101b3575b6000600181111561007a57fe5b3373ffffffffffffffffffffffffffffffffffffffff167fc5246a0664eafae13ded673b5437405295f6664552f42784245dc5c221f44284346040518082815260200191505060405180910390a36100d0610210565b005b3480156100de57600080fd5b506100e7610458565b6040518082815260200191505060405180910390f35b34801561010957600080fd5b50610112610210565b005b34801561012057600080fd5b5061013f60048036038101908080359060200190929190505050610465565b604051808373ffffffffffffffffffffffffffffffffffffffff1673ffffffffffffffffffffffffffffffffffffffff1681526020018281526020019250505060405180910390f35b34801561019457600080fd5b5061019d6104b8565b6040518082815260200191505060405180910390f35b3480156101bf57600080fd5b5061020e600480360381019080803590602001908201803590602001919091929391929390803590602001908201803590602001919091929391929390803590602001909291905050506104be565b005b60008061021b610b8c565b60003073ffffffffffffffffffffffffffffffffffffffff1631935061024d6002600054610ac390919063ffffffff16565b600a0a84101515156102ed576040517f08c379a00000000000000000000000000000000000000000000000000000000081526004018080602001828103825260348152602001807f596f752063616e206e6f742073706c6974207570206c6573732077656920746881526020017f616e2073756d206f6620616c6c2073686172657300000000000000000000000081525060400191505060405180910390fd5b600092505b6001805490508310156104525760018381548110151561030e57fe5b90600052602060002090600202016040805190810160405290816000820160009054906101000a900473ffffffffffffffffffffffffffffffffffffffff1673ffffffffffffffffffffffffffffffffffffffff1673ffffffffffffffffffffffffffffffffffffffff168152602001600182015481525050915061039a848360200151600054610adf565b9050816000015173ffffffffffffffffffffffffffffffffffffffff166108fc829081150290604051600060405180830381858888f193505050501580156103e6573d6000803e3d6000fd5b506001808111156103f357fe5b826000015173ffffffffffffffffffffffffffffffffffffffff167fc5246a0664eafae13ded673b5437405295f6664552f42784245dc5c221f44284836040518082815260200191505060405180910390a382806001019350506102f2565b50505050565b6000600180549050905090565b60018181548110151561047457fe5b90600052602060002090600202016000915090508060000160009054906101000a900473ffffffffffffffffffffffffffffffffffffffff16908060010154905082565b60005481565b6000806000600180549050141515610564576040517f08c379a00000000000000000000000000000000000000000000000000000000081526004018080602001828103825260258152602001807f436f6e74726163742063616e206f6e6c7920626520696e697469616c697a656481526020017f206f6e636500000000000000000000000000000000000000000000000000000081525060400191505060405180910390fd5b6008878790501115801561057b5750600087879050115b1515610615576040517f08c379a000000000000000000000000000000000000000000000000000000000815260040180806020018281038252602c8152602001807f54686572652069732061206d6178696d756d206f6620382064657374696e617481526020017f696f6e7320616c6c6f776564000000000000000000000000000000000000000081525060400191505060405180910390fd5b600483111515156106b4576040517f08c379a00000000000000000000000000000000000000000000000000000000081526004018080602001828103825260278152602001807f546865206d6178696d756d20616c6c6f776564207368617265734578706f6e6581526020017f6e7420697320340000000000000000000000000000000000000000000000000081525060400191505060405180910390fd5b8484905087879050141515610757576040517f08c379a000000000000000000000000000000000000000000000000000000000815260040180806020018281038252603e8152602001807f4c656e677468206f662064657374696e6174696f6e7320646f6573206e6f742081526020017f6d61746368206c656e677468206f66207368617265734d616e7469737361000081525060400191505060405180910390fd5b60009150600090505b868690508110156109595761079e878783818110151561077c57fe5b9050602002013573ffffffffffffffffffffffffffffffffffffffff16610b25565b151515610839576040517f08c379a000000000000000000000000000000000000000000000000000000000815260040180806020018281038252602b8152602001807f4120636f6e7472616374206d6179206e6f7420626520612064657374696e617481526020017f696f6e206164647265737300000000000000000000000000000000000000000081525060400191505060405180910390fd5b610860858583818110151561084a57fe5b9050602002013583610ac390919063ffffffff16565b915060016040805190810160405280898985818110151561087d57fe5b9050602002013573ffffffffffffffffffffffffffffffffffffffff1673ffffffffffffffffffffffffffffffffffffffff16815260200187878581811015156108c357fe5b905060200201358152509080600181540180825580915050906001820390600052602060002090600202016000909192909190915060008201518160000160006101000a81548173ffffffffffffffffffffffffffffffffffffffff021916908373ffffffffffffffffffffffffffffffffffffffff160217905550602082015181600101555050508080600101915050610760565b61096d600284610ac390919063ffffffff16565b600a0a82141515610a32576040517f08c379a00000000000000000000000000000000000000000000000000000000081526004018080602001828103825260598152602001807f5468652073756d206f6620616c6c207368617265734d616e746973736120736881526020017f6f756c6420657175616c203130202a2a2028205f7368617265734578706f6e6581526020017f6e74202b203220292062757420697420646f6573206e6f742e0000000000000081525060600191505060405180910390fd5b826000819055507f4607ddff8d42f0eca15ad51c38fc71d7c19e7e7f07923731ee8617c54d5bdf488787878787604051808060200180602001848152602001838103835288888281815260200192506020028082843782019150508381038252868682818152602001925060200280828437820191505097505050505050505060405180910390a150505050505050565b60008183019050828110151515610ad657fe5b80905092915050565b6000610b1c83610b0e610afc600286610ac390919063ffffffff16565b600a0a87610b3e90919063ffffffff16565b610b5490919063ffffffff16565b90509392505050565b600080823b905060008163ffffffff1611915050919050565b60008183811515610b4b57fe5b04905092915050565b600080831415610b675760009050610b86565b8183029050818382811515610b7857fe5b04141515610b8257fe5b8090505b92915050565b6040805190810160405280600073ffffffffffffffffffffffffffffffffffffffff1681526020016000815250905600a165627a7a72305820a7e9452665af6c421ff9907f4e263f13d5c0c4473a491db8387771f80efecf5b0029",
  "source": "pragma solidity 0.4.25;\n\nimport \"../node_modules/openzeppelin-solidity/contracts/math/SafeMath.sol\";\n\n\n/**\n * @title Payments Splitting contract.\n *\n * @dev Contract for companies or groups of people who wants to accept Ethereum donations or payments and\n * distribution funds by preconfigured rules.\n */\ncontract DeconetPaymentsSplitting {\n    using SafeMath for uint;\n\n    // Logged on this distribution set up completion.\n    event DistributionCreated (\n        address[] destinations,\n        uint[] sharesMantissa,\n        uint sharesExponent\n    );\n\n    // Logged when funds landed to or been sent out from this contract balance.\n    event FundsOperation (\n        address indexed senderOrAddressee,\n        uint amount,\n        FundsOperationType indexed operationType\n    );\n\n    // Enumeration of possible funds operations.\n    enum FundsOperationType { Incoming, Outgoing }\n\n    // Describes Distribution destination and its share of all incoming funds.\n    struct Distribution {\n        // Destination address of the distribution.\n        address destination;\n\n        // Floating-point number mantissa of a share allotted for a destination address.\n        uint mantissa;\n    }\n\n    // Stores exponent of a power term of a floating-point number.\n    uint public sharesExponent;\n\n    // Stores list of distributions.\n    Distribution[] public distributions;\n\n    /**\n     * @dev Payable fallback that tries to send over incoming funds to the distribution destinations splitted\n     * by pre-configured shares. In case when there is not enough gas sent for the transaction to complete\n     * distribution, all funds will be kept in contract untill somebody calls `withdrawFullContractBalance` to\n     * run postponed distribution and withdraw contract's balance funds.\n     */\n    function () public payable {\n        emit FundsOperation(msg.sender, msg.value, FundsOperationType.Incoming);\n        distributeFunds();\n    }\n\n    /**\n     * @dev Set up distribution for the current clone, can be called only once.\n     * @param _destinations Destination addresses of the current payments splitting contract clone.\n     * @param _sharesMantissa Mantissa values for destinations shares ordered respectively with `_destinations`.\n     * @param _sharesExponent Exponent of a power term that forms shares floating-point numbers, expected to\n     * be the same for all values in `_sharesMantissa`.\n     */\n    function setUpDistribution(\n        address[] _destinations,\n        uint[] _sharesMantissa,\n        uint _sharesExponent\n    )\n        external\n    {\n        require(distributions.length == 0, \"Contract can only be initialized once\"); // Make sure the clone isn't initialized yet.\n        require(_destinations.length <= 8 && _destinations.length > 0, \"There is a maximum of 8 destinations allowed\");  // max of 8 destinations\n        // prevent integer overflow when math with _sharesExponent happens\n        // also ensures that low balances can be distributed because balance must always be >= 10**(sharesExponent + 2)\n        require(_sharesExponent <= 4, \"The maximum allowed sharesExponent is 4\");\n        // ensure that lengths of arrays match so array out of bounds can't happen\n        require(_destinations.length == _sharesMantissa.length, \"Length of destinations does not match length of sharesMantissa\");\n\n        uint sum = 0;\n        for (uint i = 0; i < _destinations.length; i++) {\n            // Forbid contract as destination so that transfer can never fail\n            require(!isContract(_destinations[i]), \"A contract may not be a destination address\");\n            sum = sum.add(_sharesMantissa[i]);\n            distributions.push(Distribution(_destinations[i], _sharesMantissa[i]));\n        }\n         // taking into account 100% by adding 2 to the exponent.\n        require(sum == 10**(_sharesExponent.add(2)), \"The sum of all sharesMantissa should equal 10 ** ( _sharesExponent + 2 ) but it does not.\");\n        sharesExponent = _sharesExponent;\n        emit DistributionCreated(_destinations, _sharesMantissa, _sharesExponent);\n    }\n\n    /**\n     * @dev Process the available balance through the distribution and send money over to destination addresses.\n     */\n    function distributeFunds() public {\n        uint balance = address(this).balance;\n        require(balance >= 10**(sharesExponent.add(2)), \"You can not split up less wei than sum of all shares\");\n        for (uint i = 0; i < distributions.length; i++) {\n            Distribution memory distribution = distributions[i];\n            uint amount = calculatePayout(balance, distribution.mantissa, sharesExponent);\n            distribution.destination.transfer(amount);\n            emit FundsOperation(distribution.destination, amount, FundsOperationType.Outgoing);\n        }\n    }\n\n    /**\n     * @dev Returns length of distributions array\n     * @return Length of distributions array\n    */\n    function distributionsLength() public view returns (uint256) {\n        return distributions.length;\n    }\n\n\n    /**\n     * @dev Calculates a share of the full amount.\n     * @param _fullAmount Full amount.\n     * @param _shareMantissa Mantissa of the percentage floating-point number.\n     * @param _shareExponent Exponent of the percentage floating-point number.\n     * @return An uint of the payout.\n     */\n    function calculatePayout(uint _fullAmount, uint _shareMantissa, uint _shareExponent) private pure returns(uint) {\n        return (_fullAmount.div(10 ** (_shareExponent.add(2)))).mul(_shareMantissa);\n    }\n\n    /**\n     * @dev Checks whether or not a given address contains a contract\n     * @param _addr The address to check\n     * @return A boolean indicating whether or not the address is a contract\n     */\n    function isContract(address _addr) private view returns (bool) {\n        uint32 size;\n        assembly {\n            size := extcodesize(_addr)\n        }\n        return (size > 0);\n    }\n}\n",
  "sourcePath": "/Users/chris/Documents/WorkStuff/Deconet/Blockchain/DeconetPaymentsSplitting/contracts/DeconetPaymentsSplitting.sol",
  "compiler": {
    "name": "solc",
    "version": "0.4.25+commit.59dbf8f1.Emscripten.clang"
  },
  "schemaVersion": "3.0.0-beta.2",
  "updatedAt": "2019-01-10T19:32:55.290Z",
  "devdoc": {
    "methods": {
      "distributeFunds()": {
        "details": "Process the available balance through the distribution and send money over to destination addresses."
      },
      "distributionsLength()": {
        "details": "Returns length of distributions array",
        "return": "Length of distributions array"
      },
      "setUpDistribution(address[],uint256[],uint256)": {
        "details": "Set up distribution for the current clone, can be called only once.",
        "params": {
          "_destinations": "Destination addresses of the current payments splitting contract clone.",
          "_sharesExponent": "Exponent of a power term that forms shares floating-point numbers, expected to be the same for all values in `_sharesMantissa`.",
          "_sharesMantissa": "Mantissa values for destinations shares ordered respectively with `_destinations`."
        }
      }
    },
    "title": "Payments Splitting contract."
  },
  "userdoc": {
    "methods": {}
  }
}